{"abi":[{"type":"function","name":"RELATIVE_BROADCAST_PATH","inputs":[],"outputs":[{"name":"","type":"string","internalType":"string"}],"stateMutability":"view"},{"type":"function","name":"get_most_recent_deployment","inputs":[{"name":"contractName","type":"string","internalType":"string"},{"name":"chainId","type":"uint256","internalType":"uint256"},{"name":"relativeBroadcastPath","type":"string","internalType":"string"}],"outputs":[{"name":"","type":"address","internalType":"address"}],"stateMutability":"view"},{"type":"function","name":"get_most_recent_deployment","inputs":[{"name":"contractName","type":"string","internalType":"string"},{"name":"chainId","type":"uint256","internalType":"uint256"}],"outputs":[{"name":"","type":"address","internalType":"address"}],"stateMutability":"view"},{"type":"function","name":"vm","inputs":[],"outputs":[{"name":"","type":"Vm","internalType":"contract Vm"}],"stateMutability":"view"}],"bytecode":{"object":"0x61163c61003a600b82828239805160001a60731461002d57634e487b7160e01b600052600060045260246000fd5b30600052607381538281f3fe73000000000000000000000000000000000000000030146080604052600436106100565760003560e01c80632aa1c6961461005b5780633a7684631461009b5780633d363fe3146100ce578063e374cdf1146100e1575b600080fd5b6100856040518060400160405280600b81526020016a0b8bd89c9bd85918d85cdd60aa1b81525081565b60405161009291906109ed565b60405180910390f35b6100b6737109709ecfa91a80626ff3989d68f67f5b1dd12d81565b6040516001600160a01b039091168152602001610092565b6100b66100dc366004610b75565b6100f4565b6100b66100ef366004610be1565b6104b1565b604051630525e1db60e21b81526000908190819081908190737109709ecfa91a80626ff3989d68f67f5b1dd12d90631497876c90610139908990600390600401610c25565b600060405180830381865afa158015610156573d6000803e3d6000fd5b505050506040513d6000823e601f3d908101601f1916820160405261017e9190810190610cd5565b905060005b81518110156103e35760008282815181106101a0576101a0610e1f565b602090810291909101015160405163348051d760e11b8152600481018b905290915061023590737109709ecfa91a80626ff3989d68f67f5b1dd12d90636900a3ae90602401600060405180830381865afa158015610202573d6000803e3d6000fd5b505050506040513d6000823e601f3d908101601f1916820160405261022a9190810190610e35565b6020830151906104ea565b801561027a575061027a6040518060400160405280600f81526020016e393ab716b630ba32b9ba173539b7b760891b81525082602001516104ea90919063ffffffff16565b156103d05760208101516040516360f9bb1160e01b815260019550600091737109709ecfa91a80626ff3989d68f67f5b1dd12d916360f9bb11916102c0916004016109ed565b600060405180830381865afa1580156102dd573d6000803e3d6000fd5b505050506040513d6000823e601f3d908101601f191682016040526103059190810190610e35565b6040516356eef15b60e11b8152909150600090737109709ecfa91a80626ff3989d68f67f5b1dd12d9063addde2b690610342908590600401610e69565b602060405180830381865afa15801561035f573d6000803e3d6000fd5b505050506040513d601f19601f820116820180604052508101906103839190610ea8565b9050868111156103cd576103bf6040518060400160405280600c81526020016b0283937b1b2b9b9b4b7339d160a51b81525084602001516105d3565b6103ca828d8a61061c565b97505b50505b50806103db81610ed7565b915050610183565b50816104505760405162461bcd60e51b815260206004820152603160248201527f4e6f2072756e2d6c61746573742e6a736f6e2066696c6520666f756e6420666f604482015270391039b832b1b4b334b2b21031b430b4b760791b60648201526084015b60405180910390fd5b6001600160a01b0384161561046b57839450505050506104aa565b60405162461bcd60e51b8152602060048201526014602482015273139bc818dbdb9d1c9858dd0819195c1b1bde595960621b6044820152606401610447565b9392505050565b60006104e183836040518060400160405280600b81526020016a0b8bd89c9bd85918d85cdd60aa1b8152506100f4565b90505b92915050565b8051825160009184918491118061050057508151155b15610510576000925050506104e4565b60005b815183516105219190610ef0565b81116105c757600160005b83518110156105a05783818151811061054757610547610e1f565b01602001516001600160f81b031916856105618386610f03565b8151811061057157610571610e1f565b01602001516001600160f81b0319161461058e57600091506105a0565b8061059881610ed7565b91505061052c565b5080156105b45760019450505050506104e4565b50806105bf81610ed7565b915050610513565b50600095945050505050565b61061882826040516024016105e9929190610f16565b60408051601f198184030181529190526020810180516001600160e01b0316634b5c427760e01b17905261085d565b5050565b6000806106586040518060400160405280600e81526020016d242e7472616e73616374696f6e7360901b8152508661087e90919063ffffffff16565b6040516314a29a0f60e21b8152909150737109709ecfa91a80626ff3989d68f67f5b1dd12d9063528a683c90610692908890600401610f44565b602060405180830381865afa1580156106af573d6000803e3d6000fd5b505050506040513d601f19601f820116820180604052508101906106d39190610f8e565b15610798576000818060200190518101906106ee919061121d565b90506107306040518060400160405280601a81526020017f496e7370656374696e67202573207472616e73616374696f6e7300000000000081525082516108ff565b60005b815181101561079157600082828151811061075057610750610e1f565b6020026020010151905061077187826060015161094490919063ffffffff16565b1561077e57806040015195505b508061078981610ed7565b915050610733565b5050610854565b6000818060200190518101906107ae9190611406565b90506107f06040518060400160405280601a81526020017f496e7370656374696e67202573207472616e73616374696f6e7300000000000081525082516108ff565b60005b815181101561085157600082828151811061081057610810610e1f565b6020026020010151905061083187826060015161094490919063ffffffff16565b1561083e57806040015195505b508061084981610ed7565b9150506107f3565b50505b50909392505050565b80516a636f6e736f6c652e6c6f67602083016000808483855afa5050505050565b6040516385940ef160e01b8152606090737109709ecfa91a80626ff3989d68f67f5b1dd12d906385940ef1906108ba9086908690600401610f16565b600060405180830381865afa1580156108d7573d6000803e3d6000fd5b505050506040513d6000823e601f3d908101601f191682016040526104e19190810190610e35565b61061882826040516024016109159291906115c8565b60408051601f198184030181529190526020810180516001600160e01b03166309710a9d60e41b17905261085d565b60008160405160200161095791906115ea565b604051602081830303815290604052805190602001208360405160200161097e91906115ea565b6040516020818303038152906040528051906020012014905092915050565b60005b838110156109b85781810151838201526020016109a0565b50506000910152565b600081518084526109d981602086016020860161099d565b601f01601f19169290920160200192915050565b6020815260006104e160208301846109c1565b634e487b7160e01b600052604160045260246000fd5b60405160a081016001600160401b0381118282101715610a3857610a38610a00565b60405290565b604080519081016001600160401b0381118282101715610a3857610a38610a00565b60405160e081016001600160401b0381118282101715610a3857610a38610a00565b60405161014081016001600160401b0381118282101715610a3857610a38610a00565b60405161012081016001600160401b0381118282101715610a3857610a38610a00565b604051601f8201601f191681016001600160401b0381118282101715610af057610af0610a00565b604052919050565b60006001600160401b03821115610b1157610b11610a00565b50601f01601f191660200190565b600082601f830112610b3057600080fd5b8135610b43610b3e82610af8565b610ac8565b818152846020838601011115610b5857600080fd5b816020850160208301376000918101602001919091529392505050565b600080600060608486031215610b8a57600080fd5b83356001600160401b0380821115610ba157600080fd5b610bad87838801610b1f565b9450602086013593506040860135915080821115610bca57600080fd5b50610bd786828701610b1f565b9150509250925092565b60008060408385031215610bf457600080fd5b82356001600160401b03811115610c0a57600080fd5b610c1685828601610b1f565b95602094909401359450505050565b604081526000610c3860408301856109c1565b90506001600160401b03831660208301529392505050565b60006001600160401b03821115610c6957610c69610a00565b5060051b60200190565b600082601f830112610c8457600080fd5b8151610c92610b3e82610af8565b818152846020838601011115610ca757600080fd5b610cb882602083016020870161099d565b949350505050565b80518015158114610cd057600080fd5b919050565b60006020808385031215610ce857600080fd5b82516001600160401b0380821115610cff57600080fd5b818501915085601f830112610d1357600080fd5b8151610d21610b3e82610c50565b81815260059190911b83018401908481019088831115610d4057600080fd5b8585015b83811015610e1257805185811115610d5c5760008081fd5b860160a0818c03601f1901811315610d745760008081fd5b610d7c610a16565b8983015188811115610d8e5760008081fd5b610d9c8e8c83870101610c73565b82525060408084015189811115610db35760008081fd5b610dc18f8d83880101610c73565b8c840152506060808501518a81168114610ddb5760008081fd5b80838501525060809150610df0828601610cc0565b90830152610dff848401610cc0565b9082015285525050918601918601610d44565b5098975050505050505050565b634e487b7160e01b600052603260045260246000fd5b600060208284031215610e4757600080fd5b81516001600160401b03811115610e5d57600080fd5b610cb884828501610c73565b604081526000610e7c60408301846109c1565b8281036020840152600a81526902e74696d657374616d760b41b60208201526040810191505092915050565b600060208284031215610eba57600080fd5b5051919050565b634e487b7160e01b600052601160045260246000fd5b600060018201610ee957610ee9610ec1565b5060010190565b818103818111156104e4576104e4610ec1565b808201808211156104e4576104e4610ec1565b604081526000610f2960408301856109c1565b8281036020840152610f3b81856109c1565b95945050505050565b604081526000610f5760408301846109c1565b82810360208401526015815274242e7472616e73616374696f6e735b305d2e72706360581b60208201526040810191505092915050565b600060208284031215610fa057600080fd5b6104e182610cc0565b600082601f830112610fba57600080fd5b81516020610fca610b3e83610c50565b82815260059290921b84018101918181019086841115610fe957600080fd5b8286015b848110156110285780516001600160401b0381111561100c5760008081fd5b61101a8986838b0101610c73565b845250918301918301610fed565b509695505050505050565b80516001600160a01b0381168114610cd057600080fd5b600082601f83011261105b57600080fd5b8151602061106b610b3e83610c50565b828152600592831b850182019282820191908785111561108a57600080fd5b8387015b858110156111695780516001600160401b03808211156110ae5760008081fd5b908901906040828c03601f19018113156110c85760008081fd5b6110d0610a3e565b6110db898501611033565b815281840151838111156110ef5760008081fd5b8085019450508c603f85011261110757600092508283fd5b888401519250611119610b3e84610c50565b83815292861b8401820192898101908e8511156111365760008081fd5b948301945b848610156111545785518252948a0194908a019061113b565b828b015250875250505092840192840161108e565b5090979650505050505050565b600060e0828403121561118857600080fd5b611190610a60565b905081516001600160401b03808211156111a957600080fd5b6111b58583860161104a565b835260208401519150808211156111cb57600080fd5b506111d884828501610c73565b6020830152506111ea60408301611033565b6040820152606082015160608201526080820151608082015260a082015160a082015260c082015160c082015292915050565b6000602080838503121561123057600080fd5b82516001600160401b038082111561124757600080fd5b818501915085601f83011261125b57600080fd5b8151611269610b3e82610c50565b81815260059190911b8301840190848101908883111561128857600080fd5b8585015b83811015610e12578051858111156112a357600080fd5b8601610140818c03601f190112156112ba57600080fd5b6112c2610a82565b88820151878111156112d357600080fd5b6112e18d8b83860101610fa9565b8252506040820151878111156112f657600080fd5b6113048d8b83860101610c73565b8a8301525061131560608301611033565b604082015260808201518781111561132c57600080fd5b61133a8d8b83860101610c73565b60608301525060a08201518781111561135257600080fd5b6113608d8b83860101610c73565b60808301525060c082015160a082015261137c60e08301610cc0565b60c0820152610100808301518881111561139557600080fd5b6113a38e8c83870101610c73565b60e08401525061012080840151898111156113bd57600080fd5b6113cb8f8d83880101611176565b83850152506101408401519150888211156113e557600080fd5b6113f38e8c84870101610c73565b908301525084525091860191860161128c565b6000602080838503121561141957600080fd5b82516001600160401b038082111561143057600080fd5b818501915085601f83011261144457600080fd5b8151611452610b3e82610c50565b81815260059190911b8301840190848101908883111561147157600080fd5b8585015b83811015610e125780518581111561148c57600080fd5b8601610120818c03601f19018113156114a457600080fd5b6114ac610aa5565b89830151888111156114bd57600080fd5b6114cb8e8c83870101610fa9565b8252506040830151888111156114e057600080fd5b6114ee8e8c83870101610c73565b8b830152506114ff60608401611033565b604082015260808301518881111561151657600080fd5b6115248e8c83870101610c73565b60608301525060a08301518881111561153c57600080fd5b61154a8e8c83870101610c73565b60808301525060c083015160a082015261156660e08401610cc0565b60c082015261010080840151898111156115805760008081fd5b61158e8f8d83880101611176565b60e0840152509183015191888311156115a75760008081fd5b6115b58e8c85870101610c73565b9082015285525050918601918601611475565b6040815260006115db60408301856109c1565b90508260208301529392505050565b600082516115fc81846020870161099d565b919091019291505056fea264697066735822122004625f554d1694840b31854cb0b79fd0ce0d5809796bc827c1cd42253016058e64736f6c63430008140033","linkReferences":{}},"methodIdentifiers":{"RELATIVE_BROADCAST_PATH()":"2aa1c696","get_most_recent_deployment(string,uint256)":"e374cdf1","get_most_recent_deployment(string,uint256,string)":"3d363fe3","vm()":"3a768463"},"id":16}