{"abi":[{"type":"constructor","inputs":[],"stateMutability":"nonpayable"},{"type":"function","name":"approve","inputs":[{"name":"to","type":"address","internalType":"address"},{"name":"tokenId","type":"uint256","internalType":"uint256"}],"outputs":[],"stateMutability":"nonpayable"},{"type":"function","name":"balanceOf","inputs":[{"name":"owner","type":"address","internalType":"address"}],"outputs":[{"name":"","type":"uint256","internalType":"uint256"}],"stateMutability":"view"},{"type":"function","name":"getApproved","inputs":[{"name":"tokenId","type":"uint256","internalType":"uint256"}],"outputs":[{"name":"","type":"address","internalType":"address"}],"stateMutability":"view"},{"type":"function","name":"isApprovedForAll","inputs":[{"name":"owner","type":"address","internalType":"address"},{"name":"operator","type":"address","internalType":"address"}],"outputs":[{"name":"","type":"bool","internalType":"bool"}],"stateMutability":"view"},{"type":"function","name":"mintNft","inputs":[{"name":"tokenUri","type":"string","internalType":"string"}],"outputs":[],"stateMutability":"nonpayable"},{"type":"function","name":"name","inputs":[],"outputs":[{"name":"","type":"string","internalType":"string"}],"stateMutability":"view"},{"type":"function","name":"ownerOf","inputs":[{"name":"tokenId","type":"uint256","internalType":"uint256"}],"outputs":[{"name":"","type":"address","internalType":"address"}],"stateMutability":"view"},{"type":"function","name":"safeTransferFrom","inputs":[{"name":"from","type":"address","internalType":"address"},{"name":"to","type":"address","internalType":"address"},{"name":"tokenId","type":"uint256","internalType":"uint256"}],"outputs":[],"stateMutability":"nonpayable"},{"type":"function","name":"safeTransferFrom","inputs":[{"name":"from","type":"address","internalType":"address"},{"name":"to","type":"address","internalType":"address"},{"name":"tokenId","type":"uint256","internalType":"uint256"},{"name":"data","type":"bytes","internalType":"bytes"}],"outputs":[],"stateMutability":"nonpayable"},{"type":"function","name":"setApprovalForAll","inputs":[{"name":"operator","type":"address","internalType":"address"},{"name":"approved","type":"bool","internalType":"bool"}],"outputs":[],"stateMutability":"nonpayable"},{"type":"function","name":"supportsInterface","inputs":[{"name":"interfaceId","type":"bytes4","internalType":"bytes4"}],"outputs":[{"name":"","type":"bool","internalType":"bool"}],"stateMutability":"view"},{"type":"function","name":"symbol","inputs":[],"outputs":[{"name":"","type":"string","internalType":"string"}],"stateMutability":"view"},{"type":"function","name":"tokenURI","inputs":[{"name":"tokenId","type":"uint256","internalType":"uint256"}],"outputs":[{"name":"","type":"string","internalType":"string"}],"stateMutability":"view"},{"type":"function","name":"transferFrom","inputs":[{"name":"from","type":"address","internalType":"address"},{"name":"to","type":"address","internalType":"address"},{"name":"tokenId","type":"uint256","internalType":"uint256"}],"outputs":[],"stateMutability":"nonpayable"},{"type":"event","name":"Approval","inputs":[{"name":"owner","type":"address","indexed":true,"internalType":"address"},{"name":"approved","type":"address","indexed":true,"internalType":"address"},{"name":"tokenId","type":"uint256","indexed":true,"internalType":"uint256"}],"anonymous":false},{"type":"event","name":"ApprovalForAll","inputs":[{"name":"owner","type":"address","indexed":true,"internalType":"address"},{"name":"operator","type":"address","indexed":true,"internalType":"address"},{"name":"approved","type":"bool","indexed":false,"internalType":"bool"}],"anonymous":false},{"type":"event","name":"Transfer","inputs":[{"name":"from","type":"address","indexed":true,"internalType":"address"},{"name":"to","type":"address","indexed":true,"internalType":"address"},{"name":"tokenId","type":"uint256","indexed":true,"internalType":"uint256"}],"anonymous":false},{"type":"error","name":"ERC721IncorrectOwner","inputs":[{"name":"sender","type":"address","internalType":"address"},{"name":"tokenId","type":"uint256","internalType":"uint256"},{"name":"owner","type":"address","internalType":"address"}]},{"type":"error","name":"ERC721InsufficientApproval","inputs":[{"name":"operator","type":"address","internalType":"address"},{"name":"tokenId","type":"uint256","internalType":"uint256"}]},{"type":"error","name":"ERC721InvalidApprover","inputs":[{"name":"approver","type":"address","internalType":"address"}]},{"type":"error","name":"ERC721InvalidOperator","inputs":[{"name":"operator","type":"address","internalType":"address"}]},{"type":"error","name":"ERC721InvalidOwner","inputs":[{"name":"owner","type":"address","internalType":"address"}]},{"type":"error","name":"ERC721InvalidReceiver","inputs":[{"name":"receiver","type":"address","internalType":"address"}]},{"type":"error","name":"ERC721InvalidSender","inputs":[{"name":"sender","type":"address","internalType":"address"}]},{"type":"error","name":"ERC721NonexistentToken","inputs":[{"name":"tokenId","type":"uint256","internalType":"uint256"}]}],"bytecode":{"object":"0x60806040523480156200001157600080fd5b5060405180604001604052806005815260200164446f67696560d81b81525060405180604001604052806003815260200162444f4760e81b81525081600090816200005d91906200011f565b5060016200006c82826200011f565b5050600060065550620001eb565b634e487b7160e01b600052604160045260246000fd5b600181811c90821680620000a557607f821691505b602082108103620000c657634e487b7160e01b600052602260045260246000fd5b50919050565b601f8211156200011a57600081815260208120601f850160051c81016020861015620000f55750805b601f850160051c820191505b81811015620001165782815560010162000101565b5050505b505050565b81516001600160401b038111156200013b576200013b6200007a565b62000153816200014c845462000090565b84620000cc565b602080601f8311600181146200018b5760008415620001725750858301515b600019600386901b1c1916600185901b17855562000116565b600085815260208120601f198616915b82811015620001bc578886015182559484019460019091019084016200019b565b5085821015620001db5787850151600019600388901b60f8161c191681555b5050505050600190811b01905550565b61103380620001fb6000396000f3fe608060405234801561001057600080fd5b50600436106100ea5760003560e01c806370a082311161008c578063b88d4fde11610066578063b88d4fde146101e1578063c87b56dd146101f4578063da86f4a914610207578063e985e9c51461021a57600080fd5b806370a08231146101a557806395d89b41146101c6578063a22cb465146101ce57600080fd5b8063095ea7b3116100c8578063095ea7b31461015757806323b872dd1461016c57806342842e0e1461017f5780636352211e1461019257600080fd5b806301ffc9a7146100ef57806306fdde0314610117578063081812fc1461012c575b600080fd5b6101026100fd366004610b26565b61022d565b60405190151581526020015b60405180910390f35b61011f61027f565b60405161010e9190610b90565b61013f61013a366004610ba3565b610311565b6040516001600160a01b03909116815260200161010e565b61016a610165366004610bd8565b61033a565b005b61016a61017a366004610c02565b610349565b61016a61018d366004610c02565b6103d9565b61013f6101a0366004610ba3565b6103f9565b6101b86101b3366004610c3e565b610404565b60405190815260200161010e565b61011f61044c565b61016a6101dc366004610c59565b61045b565b61016a6101ef366004610d21565b610466565b61011f610202366004610ba3565b61047d565b61016a610215366004610d9d565b61051f565b610102610228366004610de6565b610572565b60006001600160e01b031982166380ac58cd60e01b148061025e57506001600160e01b03198216635b5e139f60e01b145b8061027957506301ffc9a760e01b6001600160e01b03198316145b92915050565b60606000805461028e90610e19565b80601f01602080910402602001604051908101604052809291908181526020018280546102ba90610e19565b80156103075780601f106102dc57610100808354040283529160200191610307565b820191906000526020600020905b8154815290600101906020018083116102ea57829003601f168201915b5050505050905090565b600061031c826105a0565b506000828152600460205260409020546001600160a01b0316610279565b6103458282336105d9565b5050565b6001600160a01b03821661037857604051633250574960e11b8152600060048201526024015b60405180910390fd5b60006103858383336105e6565b9050836001600160a01b0316816001600160a01b0316146103d3576040516364283d7b60e01b81526001600160a01b038086166004830152602482018490528216604482015260640161036f565b50505050565b6103f483838360405180602001604052806000815250610466565b505050565b6000610279826105a0565b60006001600160a01b038216610430576040516322718ad960e21b81526000600482015260240161036f565b506001600160a01b031660009081526003602052604090205490565b60606001805461028e90610e19565b6103453383836106df565b610471848484610349565b6103d38484848461077e565b600081815260076020526040902080546060919061049a90610e19565b80601f01602080910402602001604051908101604052809291908181526020018280546104c690610e19565b80156105135780601f106104e857610100808354040283529160200191610513565b820191906000526020600020905b8154815290600101906020018083116104f657829003601f168201915b50505050509050919050565b600654600090815260076020526040902061053a8282610ea1565b506006805490600061054b83610f77565b909155505060065461055d33826108a7565b60065461056b906001610f90565b6006555050565b6001600160a01b03918216600090815260056020908152604080832093909416825291909152205460ff1690565b6000818152600260205260408120546001600160a01b03168061027957604051637e27328960e01b81526004810184905260240161036f565b6103f483838360016108c1565b6000828152600260205260408120546001600160a01b0390811690831615610613576106138184866109c7565b6001600160a01b03811615610651576106306000856000806108c1565b6001600160a01b038116600090815260036020526040902080546000190190555b6001600160a01b03851615610680576001600160a01b0385166000908152600360205260409020805460010190555b60008481526002602052604080822080546001600160a01b0319166001600160a01b0389811691821790925591518793918516917fddf252ad1be2c89b69c2b068fc378daa952ba7f163c4a11628f55a4df523b3ef91a4949350505050565b6001600160a01b03821661071157604051630b61174360e31b81526001600160a01b038316600482015260240161036f565b6001600160a01b03838116600081815260056020908152604080832094871680845294825291829020805460ff191686151590811790915591519182527f17307eab39ab6107e8899845ad3d59bd9653f200f220920489ca2b5937696c31910160405180910390a3505050565b6001600160a01b0383163b156103d357604051630a85bd0160e11b81526001600160a01b0384169063150b7a02906107c0903390889087908790600401610fa3565b6020604051808303816000875af19250505080156107fb575060408051601f3d908101601f191682019092526107f891810190610fe0565b60015b610864573d808015610829576040519150601f19603f3d011682016040523d82523d6000602084013e61082e565b606091505b50805160000361085c57604051633250574960e11b81526001600160a01b038516600482015260240161036f565b805181602001fd5b6001600160e01b03198116630a85bd0160e11b146108a057604051633250574960e11b81526001600160a01b038516600482015260240161036f565b5050505050565b610345828260405180602001604052806000815250610a2b565b80806108d557506001600160a01b03821615155b156109975760006108e5846105a0565b90506001600160a01b038316158015906109115750826001600160a01b0316816001600160a01b031614155b801561092457506109228184610572565b155b1561094d5760405163a9fbf51f60e01b81526001600160a01b038416600482015260240161036f565b81156109955783856001600160a01b0316826001600160a01b03167f8c5be1e5ebec7d5bd14f71427d1e84f3dd0314c0f7b2291e5b200ac8c7c3b92560405160405180910390a45b505b5050600090815260046020526040902080546001600160a01b0319166001600160a01b0392909216919091179055565b6109d2838383610a42565b6103f4576001600160a01b038316610a0057604051637e27328960e01b81526004810182905260240161036f565b60405163177e802f60e01b81526001600160a01b03831660048201526024810182905260440161036f565b610a358383610aa8565b6103f4600084848461077e565b60006001600160a01b03831615801590610aa05750826001600160a01b0316846001600160a01b03161480610a7c5750610a7c8484610572565b80610aa057506000828152600460205260409020546001600160a01b038481169116145b949350505050565b6001600160a01b038216610ad257604051633250574960e11b81526000600482015260240161036f565b6000610ae0838360006105e6565b90506001600160a01b038116156103f4576040516339e3563760e11b81526000600482015260240161036f565b6001600160e01b031981168114610b2357600080fd5b50565b600060208284031215610b3857600080fd5b8135610b4381610b0d565b9392505050565b6000815180845260005b81811015610b7057602081850181015186830182015201610b54565b506000602082860101526020601f19601f83011685010191505092915050565b602081526000610b436020830184610b4a565b600060208284031215610bb557600080fd5b5035919050565b80356001600160a01b0381168114610bd357600080fd5b919050565b60008060408385031215610beb57600080fd5b610bf483610bbc565b946020939093013593505050565b600080600060608486031215610c1757600080fd5b610c2084610bbc565b9250610c2e60208501610bbc565b9150604084013590509250925092565b600060208284031215610c5057600080fd5b610b4382610bbc565b60008060408385031215610c6c57600080fd5b610c7583610bbc565b915060208301358015158114610c8a57600080fd5b809150509250929050565b634e487b7160e01b600052604160045260246000fd5b600067ffffffffffffffff80841115610cc657610cc6610c95565b604051601f8501601f19908116603f01168101908282118183101715610cee57610cee610c95565b81604052809350858152868686011115610d0757600080fd5b858560208301376000602087830101525050509392505050565b60008060008060808587031215610d3757600080fd5b610d4085610bbc565b9350610d4e60208601610bbc565b925060408501359150606085013567ffffffffffffffff811115610d7157600080fd5b8501601f81018713610d8257600080fd5b610d9187823560208401610cab565b91505092959194509250565b600060208284031215610daf57600080fd5b813567ffffffffffffffff811115610dc657600080fd5b8201601f81018413610dd757600080fd5b610aa084823560208401610cab565b60008060408385031215610df957600080fd5b610e0283610bbc565b9150610e1060208401610bbc565b90509250929050565b600181811c90821680610e2d57607f821691505b602082108103610e4d57634e487b7160e01b600052602260045260246000fd5b50919050565b601f8211156103f457600081815260208120601f850160051c81016020861015610e7a5750805b601f850160051c820191505b81811015610e9957828155600101610e86565b505050505050565b815167ffffffffffffffff811115610ebb57610ebb610c95565b610ecf81610ec98454610e19565b84610e53565b602080601f831160018114610f045760008415610eec5750858301515b600019600386901b1c1916600185901b178555610e99565b600085815260208120601f198616915b82811015610f3357888601518255948401946001909101908401610f14565b5085821015610f515787850151600019600388901b60f8161c191681555b5050505050600190811b01905550565b634e487b7160e01b600052601160045260246000fd5b600060018201610f8957610f89610f61565b5060010190565b8082018082111561027957610279610f61565b6001600160a01b0385811682528416602082015260408101839052608060608201819052600090610fd690830184610b4a565b9695505050505050565b600060208284031215610ff257600080fd5b8151610b4381610b0d56fea2646970667358221220a2f78f4f13d1fedeefe06526a4622d34935a1a61249d2eabaa0de9359b859c8964736f6c63430008140033","linkReferences":{}},"methodIdentifiers":{"approve(address,uint256)":"095ea7b3","balanceOf(address)":"70a08231","getApproved(uint256)":"081812fc","isApprovedForAll(address,address)":"e985e9c5","mintNft(string)":"da86f4a9","name()":"06fdde03","ownerOf(uint256)":"6352211e","safeTransferFrom(address,address,uint256)":"42842e0e","safeTransferFrom(address,address,uint256,bytes)":"b88d4fde","setApprovalForAll(address,bool)":"a22cb465","supportsInterface(bytes4)":"01ffc9a7","symbol()":"95d89b41","tokenURI(uint256)":"c87b56dd","transferFrom(address,address,uint256)":"23b872dd"},"id":33}