{"abi":[{"type":"constructor","inputs":[{"name":"sadSvgImageUri","type":"string","internalType":"string"},{"name":"happySvgImageUri","type":"string","internalType":"string"}],"stateMutability":"nonpayable"},{"type":"function","name":"approve","inputs":[{"name":"to","type":"address","internalType":"address"},{"name":"tokenId","type":"uint256","internalType":"uint256"}],"outputs":[],"stateMutability":"nonpayable"},{"type":"function","name":"balanceOf","inputs":[{"name":"owner","type":"address","internalType":"address"}],"outputs":[{"name":"","type":"uint256","internalType":"uint256"}],"stateMutability":"view"},{"type":"function","name":"flipMood","inputs":[{"name":"tokenId","type":"uint256","internalType":"uint256"}],"outputs":[],"stateMutability":"nonpayable"},{"type":"function","name":"getApproved","inputs":[{"name":"tokenId","type":"uint256","internalType":"uint256"}],"outputs":[{"name":"","type":"address","internalType":"address"}],"stateMutability":"view"},{"type":"function","name":"isApprovedForAll","inputs":[{"name":"owner","type":"address","internalType":"address"},{"name":"operator","type":"address","internalType":"address"}],"outputs":[{"name":"","type":"bool","internalType":"bool"}],"stateMutability":"view"},{"type":"function","name":"mintNft","inputs":[],"outputs":[],"stateMutability":"nonpayable"},{"type":"function","name":"name","inputs":[],"outputs":[{"name":"","type":"string","internalType":"string"}],"stateMutability":"view"},{"type":"function","name":"ownerOf","inputs":[{"name":"tokenId","type":"uint256","internalType":"uint256"}],"outputs":[{"name":"","type":"address","internalType":"address"}],"stateMutability":"view"},{"type":"function","name":"safeTransferFrom","inputs":[{"name":"from","type":"address","internalType":"address"},{"name":"to","type":"address","internalType":"address"},{"name":"tokenId","type":"uint256","internalType":"uint256"}],"outputs":[],"stateMutability":"nonpayable"},{"type":"function","name":"safeTransferFrom","inputs":[{"name":"from","type":"address","internalType":"address"},{"name":"to","type":"address","internalType":"address"},{"name":"tokenId","type":"uint256","internalType":"uint256"},{"name":"data","type":"bytes","internalType":"bytes"}],"outputs":[],"stateMutability":"nonpayable"},{"type":"function","name":"setApprovalForAll","inputs":[{"name":"operator","type":"address","internalType":"address"},{"name":"approved","type":"bool","internalType":"bool"}],"outputs":[],"stateMutability":"nonpayable"},{"type":"function","name":"supportsInterface","inputs":[{"name":"interfaceId","type":"bytes4","internalType":"bytes4"}],"outputs":[{"name":"","type":"bool","internalType":"bool"}],"stateMutability":"view"},{"type":"function","name":"symbol","inputs":[],"outputs":[{"name":"","type":"string","internalType":"string"}],"stateMutability":"view"},{"type":"function","name":"tokenURI","inputs":[{"name":"tokenId","type":"uint256","internalType":"uint256"}],"outputs":[{"name":"","type":"string","internalType":"string"}],"stateMutability":"view"},{"type":"function","name":"transferFrom","inputs":[{"name":"from","type":"address","internalType":"address"},{"name":"to","type":"address","internalType":"address"},{"name":"tokenId","type":"uint256","internalType":"uint256"}],"outputs":[],"stateMutability":"nonpayable"},{"type":"event","name":"Approval","inputs":[{"name":"owner","type":"address","indexed":true,"internalType":"address"},{"name":"approved","type":"address","indexed":true,"internalType":"address"},{"name":"tokenId","type":"uint256","indexed":true,"internalType":"uint256"}],"anonymous":false},{"type":"event","name":"ApprovalForAll","inputs":[{"name":"owner","type":"address","indexed":true,"internalType":"address"},{"name":"operator","type":"address","indexed":true,"internalType":"address"},{"name":"approved","type":"bool","indexed":false,"internalType":"bool"}],"anonymous":false},{"type":"event","name":"Transfer","inputs":[{"name":"from","type":"address","indexed":true,"internalType":"address"},{"name":"to","type":"address","indexed":true,"internalType":"address"},{"name":"tokenId","type":"uint256","indexed":true,"internalType":"uint256"}],"anonymous":false},{"type":"error","name":"ERC721IncorrectOwner","inputs":[{"name":"sender","type":"address","internalType":"address"},{"name":"tokenId","type":"uint256","internalType":"uint256"},{"name":"owner","type":"address","internalType":"address"}]},{"type":"error","name":"ERC721InsufficientApproval","inputs":[{"name":"operator","type":"address","internalType":"address"},{"name":"tokenId","type":"uint256","internalType":"uint256"}]},{"type":"error","name":"ERC721InvalidApprover","inputs":[{"name":"approver","type":"address","internalType":"address"}]},{"type":"error","name":"ERC721InvalidOperator","inputs":[{"name":"operator","type":"address","internalType":"address"}]},{"type":"error","name":"ERC721InvalidOwner","inputs":[{"name":"owner","type":"address","internalType":"address"}]},{"type":"error","name":"ERC721InvalidReceiver","inputs":[{"name":"receiver","type":"address","internalType":"address"}]},{"type":"error","name":"ERC721InvalidSender","inputs":[{"name":"sender","type":"address","internalType":"address"}]},{"type":"error","name":"ERC721NonexistentToken","inputs":[{"name":"tokenId","type":"uint256","internalType":"uint256"}]},{"type":"error","name":"MoodNft__CantFlipMoodIfNotOwner","inputs":[]}],"bytecode":{"object":"0x60806040523480156200001157600080fd5b506040516200173038038062001730833981016040819052620000349162000183565b60405180604001604052806008815260200167135bdbd90813919560c21b8152506040518060400160405280600281526020016126a760f11b81525081600090816200008191906200027c565b5060016200009082826200027c565b50506000600655506009620000a683826200027c565b50600a620000b582826200027c565b50505062000348565b634e487b7160e01b600052604160045260246000fd5b600082601f830112620000e657600080fd5b81516001600160401b0380821115620001035762000103620000be565b604051601f8301601f19908116603f011681019082821181831017156200012e576200012e620000be565b816040528381526020925086838588010111156200014b57600080fd5b600091505b838210156200016f578582018301518183018401529082019062000150565b600093810190920192909252949350505050565b600080604083850312156200019757600080fd5b82516001600160401b0380821115620001af57600080fd5b620001bd86838701620000d4565b93506020850151915080821115620001d457600080fd5b50620001e385828601620000d4565b9150509250929050565b600181811c908216806200020257607f821691505b6020821081036200022357634e487b7160e01b600052602260045260246000fd5b50919050565b601f8211156200027757600081815260208120601f850160051c81016020861015620002525750805b601f850160051c820191505b8181101562000273578281556001016200025e565b5050505b505050565b81516001600160401b03811115620002985762000298620000be565b620002b081620002a98454620001ed565b8462000229565b602080601f831160018114620002e85760008415620002cf5750858301515b600019600386901b1c1916600185901b17855562000273565b600085815260208120601f198616915b828110156200031957888601518255948401946001909101908401620002f8565b5085821015620003385787850151600019600388901b60f8161c191681555b5050505050600190811b01905550565b6113d880620003586000396000f3fe608060405234801561001057600080fd5b50600436106100f55760003560e01c806370a0823111610097578063c1a147a011610066578063c1a147a0146101ff578063c2229fea14610212578063c87b56dd1461021a578063e985e9c51461022d57600080fd5b806370a08231146101b057806395d89b41146101d1578063a22cb465146101d9578063b88d4fde146101ec57600080fd5b8063095ea7b3116100d3578063095ea7b31461016257806323b872dd1461017757806342842e0e1461018a5780636352211e1461019d57600080fd5b806301ffc9a7146100fa57806306fdde0314610122578063081812fc14610137575b600080fd5b61010d610108366004610e93565b610240565b60405190151581526020015b60405180910390f35b61012a610292565b6040516101199190610f07565b61014a610145366004610f1a565b610324565b6040516001600160a01b039091168152602001610119565b610175610170366004610f4f565b61034d565b005b610175610185366004610f79565b61035c565b610175610198366004610f79565b6103ec565b61014a6101ab366004610f1a565b61040c565b6101c36101be366004610fb5565b610417565b604051908152602001610119565b61012a61045f565b6101756101e7366004610fd0565b61046e565b6101756101fa366004611022565b610479565b61017561020d366004610f1a565b610490565b610175610582565b61012a610228366004610f1a565b6105bc565b61010d61023b3660046110fe565b61078c565b60006001600160e01b031982166380ac58cd60e01b148061027157506001600160e01b03198216635b5e139f60e01b145b8061028c57506301ffc9a760e01b6001600160e01b03198316145b92915050565b6060600080546102a190611131565b80601f01602080910402602001604051908101604052809291908181526020018280546102cd90611131565b801561031a5780601f106102ef5761010080835404028352916020019161031a565b820191906000526020600020905b8154815290600101906020018083116102fd57829003601f168201915b5050505050905090565b600061032f826107ba565b506000828152600460205260409020546001600160a01b031661028c565b6103588282336107f3565b5050565b6001600160a01b03821661038b57604051633250574960e11b8152600060048201526024015b60405180910390fd5b6000610398838333610800565b9050836001600160a01b0316816001600160a01b0316146103e6576040516364283d7b60e01b81526001600160a01b0380861660048301526024820184905282166044820152606401610382565b50505050565b61040783838360405180602001604052806000815250610479565b505050565b600061028c826107ba565b60006001600160a01b038216610443576040516322718ad960e21b815260006004820152602401610382565b506001600160a01b031660009081526003602052604090205490565b6060600180546102a190611131565b6103583383836108f9565b61048484848461035c565b6103e684848484610998565b600061049b8261040c565b9050336001600160a01b03821614806104c45750336104b983610324565b6001600160a01b0316145b6105215760405162461bcd60e51b815260206004820152602860248201527f4552433732313a2063616c6c6572206973206e6f74206f776e6572206e6f7220604482015267185c1c1c9bdd995960c21b6064820152608401610382565b6000828152600b602052604081205460ff16908160018111156105465761054661116b565b036105685750506000908152600b60205260409020805460ff19166001179055565b50506000908152600b60205260409020805460ff19169055565b61058e33600654610ac1565b600680546000908152600b60205260408120805460ff19169055815491906105b583611197565b9190505550565b606080600080848152600b602052604090205460ff1660018111156105e3576105e361116b565b0361067a57600a80546105f590611131565b80601f016020809104026020016040519081016040528092919081815260200182805461062190611131565b801561066e5780601f106106435761010080835404028352916020019161066e565b820191906000526020600020905b81548152906001019060200180831161065157829003601f168201915b50505050509050610708565b6009805461068790611131565b80601f01602080910402602001604051908101604052809291908181526020018280546106b390611131565b80156107005780601f106106d557610100808354040283529160200191610700565b820191906000526020600020905b8154815290600101906020018083116106e357829003601f168201915b505050505090505b60408051808201909152601d81527f646174613a6170706c69636174696f6e2f6a736f6e3b6261736536342c00000060208201526107648260405160200161075091906111b0565b604051602081830303815290604052610adb565b60405160200161077592919061128d565b604051602081830303815290604052915050919050565b6001600160a01b03918216600090815260056020908152604080832093909416825291909152205460ff1690565b6000818152600260205260408120546001600160a01b03168061028c57604051637e27328960e01b815260048101849052602401610382565b6104078383836001610c2e565b6000828152600260205260408120546001600160a01b039081169083161561082d5761082d818486610d34565b6001600160a01b0381161561086b5761084a600085600080610c2e565b6001600160a01b038116600090815260036020526040902080546000190190555b6001600160a01b0385161561089a576001600160a01b0385166000908152600360205260409020805460010190555b60008481526002602052604080822080546001600160a01b0319166001600160a01b0389811691821790925591518793918516917fddf252ad1be2c89b69c2b068fc378daa952ba7f163c4a11628f55a4df523b3ef91a4949350505050565b6001600160a01b03821661092b57604051630b61174360e31b81526001600160a01b0383166004820152602401610382565b6001600160a01b03838116600081815260056020908152604080832094871680845294825291829020805460ff191686151590811790915591519182527f17307eab39ab6107e8899845ad3d59bd9653f200f220920489ca2b5937696c31910160405180910390a3505050565b6001600160a01b0383163b156103e657604051630a85bd0160e11b81526001600160a01b0384169063150b7a02906109da9033908890879087906004016112bc565b6020604051808303816000875af1925050508015610a15575060408051601f3d908101601f19168201909252610a12918101906112f9565b60015b610a7e573d808015610a43576040519150601f19603f3d011682016040523d82523d6000602084013e610a48565b606091505b508051600003610a7657604051633250574960e11b81526001600160a01b0385166004820152602401610382565b805181602001fd5b6001600160e01b03198116630a85bd0160e11b14610aba57604051633250574960e11b81526001600160a01b0385166004820152602401610382565b5050505050565b610358828260405180602001604052806000815250610d98565b60608151600003610afa57505060408051602081019091526000815290565b60006040518060600160405280604081526020016113636040913990506000600384516002610b299190611316565b610b339190611329565b610b3e90600461134b565b67ffffffffffffffff811115610b5657610b5661100c565b6040519080825280601f01601f191660200182016040528015610b80576020820181803683370190505b509050600182016020820185865187015b80821015610bec576003820191508151603f8160121c168501518453600184019350603f81600c1c168501518453600184019350603f8160061c168501518453600184019350603f8116850151845350600183019250610b91565b5050600386510660018114610c085760028114610c1b57610c23565b603d6001830353603d6002830353610c23565b603d60018303535b509195945050505050565b8080610c4257506001600160a01b03821615155b15610d04576000610c52846107ba565b90506001600160a01b03831615801590610c7e5750826001600160a01b0316816001600160a01b031614155b8015610c915750610c8f818461078c565b155b15610cba5760405163a9fbf51f60e01b81526001600160a01b0384166004820152602401610382565b8115610d025783856001600160a01b0316826001600160a01b03167f8c5be1e5ebec7d5bd14f71427d1e84f3dd0314c0f7b2291e5b200ac8c7c3b92560405160405180910390a45b505b5050600090815260046020526040902080546001600160a01b0319166001600160a01b0392909216919091179055565b610d3f838383610daf565b610407576001600160a01b038316610d6d57604051637e27328960e01b815260048101829052602401610382565b60405163177e802f60e01b81526001600160a01b038316600482015260248101829052604401610382565b610da28383610e15565b6104076000848484610998565b60006001600160a01b03831615801590610e0d5750826001600160a01b0316846001600160a01b03161480610de95750610de9848461078c565b80610e0d57506000828152600460205260409020546001600160a01b038481169116145b949350505050565b6001600160a01b038216610e3f57604051633250574960e11b815260006004820152602401610382565b6000610e4d83836000610800565b90506001600160a01b03811615610407576040516339e3563760e11b815260006004820152602401610382565b6001600160e01b031981168114610e9057600080fd5b50565b600060208284031215610ea557600080fd5b8135610eb081610e7a565b9392505050565b60005b83811015610ed2578181015183820152602001610eba565b50506000910152565b60008151808452610ef3816020860160208601610eb7565b601f01601f19169290920160200192915050565b602081526000610eb06020830184610edb565b600060208284031215610f2c57600080fd5b5035919050565b80356001600160a01b0381168114610f4a57600080fd5b919050565b60008060408385031215610f6257600080fd5b610f6b83610f33565b946020939093013593505050565b600080600060608486031215610f8e57600080fd5b610f9784610f33565b9250610fa560208501610f33565b9150604084013590509250925092565b600060208284031215610fc757600080fd5b610eb082610f33565b60008060408385031215610fe357600080fd5b610fec83610f33565b91506020830135801515811461100157600080fd5b809150509250929050565b634e487b7160e01b600052604160045260246000fd5b6000806000806080858703121561103857600080fd5b61104185610f33565b935061104f60208601610f33565b925060408501359150606085013567ffffffffffffffff8082111561107357600080fd5b818701915087601f83011261108757600080fd5b8135818111156110995761109961100c565b604051601f8201601f19908116603f011681019083821181831017156110c1576110c161100c565b816040528281528a60208487010111156110da57600080fd5b82602086016020830137600060208483010152809550505050505092959194509250565b6000806040838503121561111157600080fd5b61111a83610f33565b915061112860208401610f33565b90509250929050565b600181811c9082168061114557607f821691505b60208210810361116557634e487b7160e01b600052602260045260246000fd5b50919050565b634e487b7160e01b600052602160045260246000fd5b634e487b7160e01b600052601160045260246000fd5b6000600182016111a9576111a9611181565b5060010190565b7f7b226e616d65223a20222c206e616d6528292c20226465736372697074696f6e81527f223a2022416e204e46542074686174207265666c6563747320746865206f776e60208201527f657273206d6f6f642e222c202261747472696275746573223a205b7b2274726160408201527f69745f74797065223a20226d6f6f64696e657373222c202276616c7565223a206060820152701898183eae96101134b6b0b3b2911d101160791b608082015260008251611274816091850160208701610eb7565b61227d60f01b6091939091019283015250609301919050565b6000835161129f818460208801610eb7565b8351908301906112b3818360208801610eb7565b01949350505050565b6001600160a01b03858116825284166020820152604081018390526080606082018190526000906112ef90830184610edb565b9695505050505050565b60006020828403121561130b57600080fd5b8151610eb081610e7a565b8082018082111561028c5761028c611181565b60008261134657634e487b7160e01b600052601260045260246000fd5b500490565b808202811582820484141761028c5761028c61118156fe4142434445464748494a4b4c4d4e4f505152535455565758595a6162636465666768696a6b6c6d6e6f707172737475767778797a303132333435363738392b2fa264697066735822122051a3c38c5f76aa8863cfa00a52b35c5166bfdf9776ea2b886602cd2be153802e64736f6c63430008140033","linkReferences":{}},"methodIdentifiers":{"approve(address,uint256)":"095ea7b3","balanceOf(address)":"70a08231","flipMood(uint256)":"c1a147a0","getApproved(uint256)":"081812fc","isApprovedForAll(address,address)":"e985e9c5","mintNft()":"c2229fea","name()":"06fdde03","ownerOf(uint256)":"6352211e","safeTransferFrom(address,address,uint256)":"42842e0e","safeTransferFrom(address,address,uint256,bytes)":"b88d4fde","setApprovalForAll(address,bool)":"a22cb465","supportsInterface(bytes4)":"01ffc9a7","symbol()":"95d89b41","tokenURI(uint256)":"c87b56dd","transferFrom(address,address,uint256)":"23b872dd"},"id":34}